:100000000C9434000C9446000C9446000C9446006A
:100010000C9446000C9446000C9446000C94460048
:100020000C9446000C9492010C9446000C944600EB
:100030000C9446000C9446000C9446000C94460028
:100040000C9446000C9446000C9446000C94460018
:100050000C9446000C9446000C9446000C94460008
:100060000C9446000C94460011241FBECFEFD8E03C
:10007000DEBFCDBF21E0A0E0B1E001C01D92AB30FA
:10008000B207E1F70E94D2010C94F9010C94000030
:100090005F9887FD5F9A5E9886FD5E9A5D9885FD04
:1000A0005D9A5C9884FD5C9A299A85E08A95F1F7BF
:1000B0000000299885E08A95F1F700000895CF9314
:1000C000C82F289A29980E9448008C2F8295807FFB
:1000D000CF910C9448000F931F93CF93DF9300D0E0
:1000E000CDB7DEB78C011A821982E981FA81E00F5F
:1000F000F11F8081811107C00F900F90DF91CF9188
:100100001F910F910895E981FA81E00FF11F80811D
:100110000E945F0089819A8101969A8389838FE387
:1001200091E00197F1F700C00000DFCFCF93C82F17
:10013000289829980E9448008C2F8295807FCF9123
:100140000C944800579A569A559A549A219A209A94
:100150002FEF81EE94E0215080409040E1F700C005
:1001600000002898299880E30E9448008FE39CE9CA
:100170000197F1F700C0000080E30E9448008FE182
:1001800093E00197F1F700C0000080E30E9448006F
:100190008FE193E00197F1F700C0000088E20E9430
:1001A00048008FE391E00197F1F700C0000088E27A
:1001B0000E9496008FE391E00197F1F700C00000E4
:1001C00088E00E9496008FE391E00197F1F700C06C
:1001D000000081E00E9496008FE79EE30197F1F70F
:1001E00000C0000086E00E9496008FE391E0019736
:1001F000F1F700C000008CE00E9496008FE391E0D0
:100200000197F1F700C00000089584E08093B100E9
:1002100081E0809370000895259A0895249A0895A6
:100220001092C50087E68093C40088E08093C100E7
:1002300086E08093C20008959091C00095FFFCCFA6
:100240008093C60008950C94A200089585B190E2B1
:10025000892785B9089508950F920FB6F8940F92E3
:100260001F922F923F924F925F926F927F928F9246
:100270009F92AF92BF92CF92DF92EF92FF920F9335
:100280001F932F933F934F935F936F937F938F931E
:100290009F93AF93BF93CF93DF93EF93FF938DB76C
:1002A0009EB7E0910401F0E0EE0FFF1FEB5FFE4F01
:1002B000918380838091040190E0019663E070E077
:1002C0000E94E50180930401E0910401F0E0EE0F4B
:1002D000FF1FEB5FFE4F808191819EBF8DBFFF911D
:1002E000EF91DF91CF91BF91AF919F918F917F91CE
:1002F0006F915F914F913F912F911F910F91FF90BF
:10030000EF90DF90CF90BF90AF909F908F907F90B5
:100310006F905F904F903F902F901F900F900FBE67
:100320000F9008951F920F920FB60F9211242F93E2
:100330003F934F935F936F937F938F939F93AF936D
:10034000BF93EF93FF9388B192E0892788B980919A
:1003500002019091030101969093030180930201A1
:10036000449779F480910001909101010196909356
:1003700001018093000110920301109202010E947A
:100380002C01FF91EF91BF91AF919F918F917F9140
:100390006F915F914F913F912F910F900FBE0F90F2
:1003A0001F9018950E940E010E94050178940E94EA
:1003B00026012FEF83ED90E3215080409040E1F73C
:1003C00000C000000E942601F2CFAA1BBB1B51E116
:1003D00007C0AA1FBB1FA617B70710F0A61BB70BB5
:1003E000881F991F5A95A9F780959095BC01CD015A
:0603F0000895F894FFCF10
:00000001FF
